{
  "_format": "hh-sol-artifact-1",
  "contractName": "SupplyChain",
  "sourceName": "contracts/SupplyChain.sol",
  "abi": [
    {
      "anonymous": false,
      "inputs": [
        {
          "indexed": false,
          "internalType": "uint256",
          "name": "id",
          "type": "uint256"
        },
        {
          "indexed": false,
          "internalType": "address",
          "name": "owner",
          "type": "address"
        }
      ],
      "name": "BatchRegistered",
      "type": "event"
    },
    {
      "anonymous": false,
      "inputs": [
        {
          "indexed": false,
          "internalType": "uint256",
          "name": "id",
          "type": "uint256"
        },
        {
          "indexed": false,
          "internalType": "address",
          "name": "newOwner",
          "type": "address"
        }
      ],
      "name": "OwnershipTransferred",
      "type": "event"
    },
    {
      "inputs": [],
      "name": "batchCount",
      "outputs": [
        {
          "internalType": "uint256",
          "name": "",
          "type": "uint256"
        }
      ],
      "stateMutability": "view",
      "type": "function"
    },
    {
      "inputs": [
        {
          "internalType": "uint256",
          "name": "",
          "type": "uint256"
        }
      ],
      "name": "batches",
      "outputs": [
        {
          "internalType": "uint256",
          "name": "id",
          "type": "uint256"
        },
        {
          "internalType": "string",
          "name": "productName",
          "type": "string"
        },
        {
          "internalType": "address",
          "name": "manufacturer",
          "type": "address"
        },
        {
          "internalType": "uint256",
          "name": "quantity",
          "type": "uint256"
        },
        {
          "internalType": "address",
          "name": "currentOwner",
          "type": "address"
        }
      ],
      "stateMutability": "view",
      "type": "function"
    },
    {
      "inputs": [
        {
          "internalType": "uint256",
          "name": "_id",
          "type": "uint256"
        }
      ],
      "name": "getBatch",
      "outputs": [
        {
          "components": [
            {
              "internalType": "uint256",
              "name": "id",
              "type": "uint256"
            },
            {
              "internalType": "string",
              "name": "productName",
              "type": "string"
            },
            {
              "internalType": "address",
              "name": "manufacturer",
              "type": "address"
            },
            {
              "internalType": "uint256",
              "name": "quantity",
              "type": "uint256"
            },
            {
              "internalType": "address",
              "name": "currentOwner",
              "type": "address"
            }
          ],
          "internalType": "struct SupplyChain.Batch",
          "name": "",
          "type": "tuple"
        }
      ],
      "stateMutability": "view",
      "type": "function"
    },
    {
      "inputs": [
        {
          "internalType": "string",
          "name": "_name",
          "type": "string"
        },
        {
          "internalType": "uint256",
          "name": "_quantity",
          "type": "uint256"
        }
      ],
      "name": "registerBatch",
      "outputs": [],
      "stateMutability": "nonpayable",
      "type": "function"
    },
    {
      "inputs": [
        {
          "internalType": "uint256",
          "name": "_id",
          "type": "uint256"
        },
        {
          "internalType": "address",
          "name": "_newOwner",
          "type": "address"
        }
      ],
      "name": "transferOwnership",
      "outputs": [],
      "stateMutability": "nonpayable",
      "type": "function"
    }
  ],
  "bytecode": "0x6080604052600060015534801561001557600080fd5b50610f8b806100256000396000f3fe608060405234801561001057600080fd5b50600436106100575760003560e01c806306f130561461005c5780632860d70f1461007a57806329507f73146100965780635ac44282146100b2578063b32c4d8d146100e2575b600080fd5b610064610116565b60405161007191906106bb565b60405180910390f35b610094600480360381019061008f919061085c565b61011c565b005b6100b060048036038101906100ab9190610916565b610297565b005b6100cc60048036038101906100c79190610956565b6103cb565b6040516100d99190610a96565b60405180910390f35b6100fc60048036038101906100f79190610956565b610549565b60405161010d959493929190610b11565b60405180910390f35b60015481565b6001600081548092919061012f90610b9a565b91905055506040518060a0016040528060015481526020018381526020013373ffffffffffffffffffffffffffffffffffffffff1681526020018281526020013373ffffffffffffffffffffffffffffffffffffffff1681525060008060015481526020019081526020016000206000820151816000015560208201518160010190816101bc9190610dee565b5060408201518160020160006101000a81548173ffffffffffffffffffffffffffffffffffffffff021916908373ffffffffffffffffffffffffffffffffffffffff1602179055506060820151816003015560808201518160040160006101000a81548173ffffffffffffffffffffffffffffffffffffffff021916908373ffffffffffffffffffffffffffffffffffffffff1602179055509050507f38d48d478ab5d7ee925562ed733fa2cb273033dddd953fb665168102fa3d3e026001543360405161028b929190610ec0565b60405180910390a15050565b3373ffffffffffffffffffffffffffffffffffffffff1660008084815260200190815260200160002060040160009054906101000a900473ffffffffffffffffffffffffffffffffffffffff1673ffffffffffffffffffffffffffffffffffffffff161461033a576040517f08c379a000000000000000000000000000000000000000000000000000000000815260040161033190610f35565b60405180910390fd5b8060008084815260200190815260200160002060040160006101000a81548173ffffffffffffffffffffffffffffffffffffffff021916908373ffffffffffffffffffffffffffffffffffffffff1602179055507fba8cc72bdfdb4f3e2281c3f17f6be90c470f76dd1106321a2928859835874bc282826040516103bf929190610ec0565b60405180910390a15050565b6103d3610647565b6000808381526020019081526020016000206040518060a00160405290816000820154815260200160018201805461040a90610c11565b80601f016020809104026020016040519081016040528092919081815260200182805461043690610c11565b80156104835780601f1061045857610100808354040283529160200191610483565b820191906000526020600020905b81548152906001019060200180831161046657829003601f168201915b505050505081526020016002820160009054906101000a900473ffffffffffffffffffffffffffffffffffffffff1673ffffffffffffffffffffffffffffffffffffffff1673ffffffffffffffffffffffffffffffffffffffff168152602001600382015481526020016004820160009054906101000a900473ffffffffffffffffffffffffffffffffffffffff1673ffffffffffffffffffffffffffffffffffffffff1673ffffffffffffffffffffffffffffffffffffffff16815250509050919050565b600060205280600052604060002060009150905080600001549080600101805461057290610c11565b80601f016020809104026020016040519081016040528092919081815260200182805461059e90610c11565b80156105eb5780601f106105c0576101008083540402835291602001916105eb565b820191906000526020600020905b8154815290600101906020018083116105ce57829003601f168201915b5050505050908060020160009054906101000a900473ffffffffffffffffffffffffffffffffffffffff16908060030154908060040160009054906101000a900473ffffffffffffffffffffffffffffffffffffffff16905085565b6040518060a001604052806000815260200160608152602001600073ffffffffffffffffffffffffffffffffffffffff16815260200160008152602001600073ffffffffffffffffffffffffffffffffffffffff1681525090565b6000819050919050565b6106b5816106a2565b82525050565b60006020820190506106d060008301846106ac565b92915050565b6000604051905090565b600080fd5b600080fd5b600080fd5b600080fd5b6000601f19601f8301169050919050565b7f4e487b7100000000000000000000000000000000000000000000000000000000600052604160045260246000fd5b61073d826106f4565b810181811067ffffffffffffffff8211171561075c5761075b610705565b5b80604052505050565b600061076f6106d6565b905061077b8282610734565b919050565b600067ffffffffffffffff82111561079b5761079a610705565b5b6107a4826106f4565b9050602081019050919050565b82818337600083830152505050565b60006107d36107ce84610780565b610765565b9050828152602081018484840111156107ef576107ee6106ef565b5b6107fa8482856107b1565b509392505050565b600082601f830112610817576108166106ea565b5b81356108278482602086016107c0565b91505092915050565b610839816106a2565b811461084457600080fd5b50565b60008135905061085681610830565b92915050565b60008060408385031215610873576108726106e0565b5b600083013567ffffffffffffffff811115610891576108906106e5565b5b61089d85828601610802565b92505060206108ae85828601610847565b9150509250929050565b600073ffffffffffffffffffffffffffffffffffffffff82169050919050565b60006108e3826108b8565b9050919050565b6108f3816108d8565b81146108fe57600080fd5b50565b600081359050610910816108ea565b92915050565b6000806040838503121561092d5761092c6106e0565b5b600061093b85828601610847565b925050602061094c85828601610901565b9150509250929050565b60006020828403121561096c5761096b6106e0565b5b600061097a84828501610847565b91505092915050565b61098c816106a2565b82525050565b600081519050919050565b600082825260208201905092915050565b60005b838110156109cc5780820151818401526020810190506109b1565b60008484015250505050565b60006109e382610992565b6109ed818561099d565b93506109fd8185602086016109ae565b610a06816106f4565b840191505092915050565b610a1a816108d8565b82525050565b600060a083016000830151610a386000860182610983565b5060208301518482036020860152610a5082826109d8565b9150506040830151610a656040860182610a11565b506060830151610a786060860182610983565b506080830151610a8b6080860182610a11565b508091505092915050565b60006020820190508181036000830152610ab08184610a20565b905092915050565b600082825260208201905092915050565b6000610ad482610992565b610ade8185610ab8565b9350610aee8185602086016109ae565b610af7816106f4565b840191505092915050565b610b0b816108d8565b82525050565b600060a082019050610b2660008301886106ac565b8181036020830152610b388187610ac9565b9050610b476040830186610b02565b610b5460608301856106ac565b610b616080830184610b02565b9695505050505050565b7f4e487b7100000000000000000000000000000000000000000000000000000000600052601160045260246000fd5b6000610ba5826106a2565b91507fffffffffffffffffffffffffffffffffffffffffffffffffffffffffffffffff8203610bd757610bd6610b6b565b5b600182019050919050565b7f4e487b7100000000000000000000000000000000000000000000000000000000600052602260045260246000fd5b60006002820490506001821680610c2957607f821691505b602082108103610c3c57610c3b610be2565b5b50919050565b60008190508160005260206000209050919050565b60006020601f8301049050919050565b600082821b905092915050565b600060088302610ca47fffffffffffffffffffffffffffffffffffffffffffffffffffffffffffffffff82610c67565b610cae8683610c67565b95508019841693508086168417925050509392505050565b6000819050919050565b6000610ceb610ce6610ce1846106a2565b610cc6565b6106a2565b9050919050565b6000819050919050565b610d0583610cd0565b610d19610d1182610cf2565b848454610c74565b825550505050565b600090565b610d2e610d21565b610d39818484610cfc565b505050565b5b81811015610d5d57610d52600082610d26565b600181019050610d3f565b5050565b601f821115610da257610d7381610c42565b610d7c84610c57565b81016020851015610d8b578190505b610d9f610d9785610c57565b830182610d3e565b50505b505050565b600082821c905092915050565b6000610dc560001984600802610da7565b1980831691505092915050565b6000610dde8383610db4565b9150826002028217905092915050565b610df782610992565b67ffffffffffffffff811115610e1057610e0f610705565b5b610e1a8254610c11565b610e25828285610d61565b600060209050601f831160018114610e585760008415610e46578287015190505b610e508582610dd2565b865550610eb8565b601f198416610e6686610c42565b60005b82811015610e8e57848901518255600182019150602085019450602081019050610e69565b86831015610eab5784890151610ea7601f891682610db4565b8355505b6001600288020188555050505b505050505050565b6000604082019050610ed560008301856106ac565b610ee26020830184610b02565b9392505050565b7f4e6f74206f776e65720000000000000000000000000000000000000000000000600082015250565b6000610f1f600983610ab8565b9150610f2a82610ee9565b602082019050919050565b60006020820190508181036000830152610f4e81610f12565b905091905056fea2646970667358221220cb7919827b4e8f32e9da387ea3891b7f5458a795cf76aefedffe0694a3265e2964736f6c63430008140033",
  "linkReferences": {},
  "deployedLinkReferences": {}
}